:020000040800F2
:10000000A00B002089010008A13700085126000834
:10001000613700087B040008A540000800000000CC
:10002000000000000000000000000000F1370008A0
:10003000D704000800000000A3370008BD380008FE
:10004000A3010008A3010008A3010008A301000800
:10005000A3010008A3010008A3010008D9040008B7
:10006000A3010008A3010008A3010008A3010008E0
:10007000A3010008A30100087D040008890400080A
:1000800095040008A1040008A3010008A3010008CA
:10009000A3010008A3010008A3010008DF04000871
:1000A000A3010008A3010008A3010008A3010008A0
:1000B000A301000821390008A301000861260008F7
:1000C00055260008A3010008A3010008A3010008A9
:1000D000A30100088D40000899400008A301000812
:1000E000A3010008A3010008A301000800F002F822
:1000F00000F03AF80AA090E8000C82448344AAF188
:100100000107DA4501D100F02FF8AFF2090EBAE885
:100110000F0013F0010F18BFFB1A43F0010318473B
:10012000B0460000D0460000103A24BF78C878C11D
:10013000FAD8520724BF30C830C144BF04680C60ED
:10014000704700000023002400250026103A28BF35
:1001500078C1FBD8520728BF30C148BF0B60704739
:100160001FB51FBD10B510BD00F04EF91146FFF7C9
:10017000F7FF03F0A9FF00F06CF903B4FFF7F2FFFB
:1001800003BC00F073F900000948804709480047A4
:10019000FEE7FEE7FEE7FEE7FEE7FEE7FEE7FEE737
:1001A000FEE7FEE704480549054A064B7047000094
:1001B0001F390008ED000008A0050020A00B00205A
:1001C000A0070020A0070020032A40F2308010F092
:1001D000030C00F0158011F8013BBCF1020F6244E2
:1001E00098BF11F801CB00F8013B38BF11F8013B73
:1001F000A2F1040298BF00F801CB38BF00F8013B20
:1002000011F0030300F09180083AC0F0088051F823
:10021000043B083A51F804CBA0E80810F5E7121D9A
:100220005CBF51F8043B40F8043BAFF30080D207B9
:1002300024BF11F8013B11F801CB48BF11F8012B85
:1002400024BF00F8013B00F801CB48BF00F8012BA8
:100250007047431A28BF9A427FF6B6AF032A10446C
:10026000114440F2268010F0030F1EBF11F8013D2B
:10027000521E00F8013D10F0030F7FF4F6AF11F0AD
:10028000030300F09780083AC0F00B8051F8043D5A
:10029000083A51F804CD40F8043D40F804CDFFF78A
:1002A000F3BF121D5CBF51F8043D40F8043DAFF3AD
:1002B0000080D20724BF11F8013D11F801CD48BFDD
:1002C00011F8012C24BF00F8013D00F801CD48BF12
:1002D00000F8012C70474FF0000200B51346944619
:1002E0009646203922BFA0E80C50A0E80C50B1F18E
:1002F0002001BFF4F7AF090728BFA0E80C5048BFA2
:100300000CC05DF804EB890028BF40F8042B08BF3F
:10031000704748BF20F8022B11F0804F18BF00F83B
:10032000012B704770477047704710B5203AC0F0F6
:100330000B80B1E81850203AA0E81850B1E81850E6
:10034000A0E81850BFF4F5AF5FEA027C24BFB1E823
:100350001850A0E8185044BF18C918C0BDE8104094
:100360005FEA827C24BF51F8043B40F8043B08BF9D
:100370007047D20728BF31F8023B48BF11F8012B64
:1003800028BF20F8023B48BF00F8012B7047431AF2
:1003900028BF9A427FF6C9AF104410F0030F1144F2
:1003A0001EBF11F8013D521E00F8013D10F0030F71
:1003B0007FF4F6AF103AC0F00A8010B531E918505A
:1003C000103A20E91850BFF4F9AFBDE810405307C8
:1003D00024BF31E9081020E9081044BF51F8043D5A
:1003E00040F8043D12F0030F08BF7047D20728BF42
:1003F00031F8023D48BF11F8012C28BF20F8023D1A
:1004000048BF00F8012C7047754600F02BF8AE4647
:1004100005006946534620F00700854618B020B510
:10042000FFF7C0FEBDE820404FF000064FF0000788
:100430004FF000084FF0000B21F00701AC46ACE88C
:10044000C009ACE8C009ACE8C009ACE8C0098D46F9
:10045000704710B50446AFF300802046BDE8104059
:10046000FFF78BBE00487047400500200149182067
:10047000ABBEFEE7260002007047FEE7014800F031
:10048000A7B8000074040020014800F0A1B80000E3
:1004900030040020014800F09BB80000B8040020A0
:1004A000014800F095B80000FC04002030B590F839
:1004B00040500124AC40C56B6C60046863604368C5
:1004C000102B036803D099600068C26030BD9A6049
:1004D0000068C16030BD7047022000F0C9B98020BB
:1004E00000F0C6B972B6FEE710B590F821100022F0
:1004F000022905D00421816380F82020012010BD4D
:1005000001680B6823F00E030B6001680B6823F091
:1005100001030B6090F84030C46B012101FA03F332
:10052000636080F8211080F82020104610BD000084
:1005300010B590F821100024022903D00421816312
:1005400001243DE001680A6822F00E020A60016899
:100550000A6822F001020A601A4A0168914201D138
:10056000012121E0174A1432914201D110211BE0F0
:10057000144A2832914201D1891515E0114A3C32C2
:10058000914201D189140FE00E4A5032914202D1BA
:100590004FF4803108E00B4A6432914202D14FF4AB
:1005A000801101E04FF08071064A083A5160012144
:1005B00080F82110002180F82010416B01B188479C
:1005C000204610BD0800024090F82100704700004E
:1005D0002DE9F05FC16B0C6801680B68D0F840C072
:1005E000042202FA0CF2494DDFF824A1494E4A4F89
:1005F000DFF828B1DFF828E122422CD05A072AD5AB
:100600000A68920603D40A6822F004020A600168AC
:10061000A94201D1042219E0514501D1402215E03F
:10062000B14202D14FF4806210E0B94202D14FF4DE
:1006300080420BE0594502D14FF4802206E071451B
:1006400002D14FF4800201E04FF080622F49083957
:100650004A60C16A3BE04FF0020808FA0CF818EA59
:10066000040F4FF000094FF0010235D05FEA8378A4
:1006700032D50B689B0605D40B6823F00A030B6088
:1006800080F821200168A94201D1022219E05145D8
:1006900001D1202215E0B14202D14FF4007210E0E6
:1006A000B94202D14FF400520BE0594502D14FF448
:1006B000003206E0714502D14FF4001201E04FF024
:1006C0000072124908394A6080F82090816A002936
:1006D0001AD0BDE8F05F0847082505FA0CF5254259
:1006E00012D01B0710D50B6823F00E030B6090F897
:1006F0004010C36B02FA01F15960826380F8212037
:1007000080F82090016BE2E7BDE8F09F080002400E
:100710001C000240300002404400024058000240E9
:100720006C00024030B528B308C81349142219449C
:10073000B1FBF2F18900C163104981630221417765
:100740001A6843F6F0718A43D0E900142143D0E9D6
:1007500002452C43214304692143446921438469B0
:10076000214311431960002141630122427701773F
:10077000084630BD012030BDF8FFFDBF000002403B
:1007800070B5044690F82000002501280CD0012007
:1007900084F8200094F821600020012E06D084F80F
:1007A00020000225284670BD022070BD022684F874
:1007B0002160A0632068066826F0010606602046D6
:1007C000FFF774FEE06A00282068016802D041F05B
:1007D0000E0106E021F0040101602068016841F08B
:1007E0000A0101602068016841F001010160D9E758
:1007F00070B5044600F042F90546601C02D004487A
:100800000078044400F03AF9401BA042FAD370BDCE
:100810002C00002010B5044600F030F91349022CDA
:1008200017D0802C20D14A6A821AC82A1CD9486263
:100830008878002818D0CA780A32D2B2CA70642ADE
:1008400001D90022CA7002F08DFFBDE8104002F00D
:10085000D1BF0A6A821AC82A06D908620879401CE0
:10086000C0B202F09FFFF0E710BD000000000020C2
:10087000044910B50A68024202D00860FFF7CAFFB7
:1008800010BD0000140401402DE9F84FDFF8B891C5
:100890000024A9F1040B23460F2709F1040AABF148
:1008A000040EC9E00125A5402A40AA427DD1674E29
:1008B000D1F804C0ACEB0608B44532D014DCBCF16E
:1008C000030F3AD009DCBCF1000F2AD0BCF1010FB4
:1008D0001CD0BCF1020F31D11DE0BCF1110F17D0BB
:1008E000BCF1120F2AD119E0B8F5881F19D006DC27
:1008F000B8F5803F15D0B8F5801F1FD111E0B8F5CD
:10090000001F0ED0B8F5041F18D10AE0CB6815E01F
:10091000CB681B1D12E0CB6808330FE0CB680C33AB
:100920000CE08B682BB1012B4FF0080303D045611D
:1009300004E0042302E0056100E00023FF2A01D85F
:10094000064601E000F104064FEA840501D9A5F14D
:100950002005D6F8008007FA05FC28EA0C0803FAFF
:1009600005F548EA0508C6F800804D68ED0062D537
:10097000374DAE6946F00106AE61AD6924F003065D
:1009800005F001050095334D06EB050CDCF8085029
:10099000A607360F07FA06F825EA0805DFF8B8803B
:1009A000404503D14FF0000817E044E0DFF8AC8089
:1009B000404502D14FF001080FE0DFF8A480404528
:1009C00002D14FF0020808E0DFF89880404502D1DC
:1009D0004FF0030801E04FF0040808FA06F848EA6F
:1009E0000508CCF808804D68D9F80060ED024D4646
:1009F00001D5164300E096432E604D68DAF800609A
:100A0000AD02554601D5164300E096432E604D6871
:100A1000DBF80060AD035D4601D5164300E0964368
:100A20002E604D68DEF80060ED03754601D5164373
:100A300000E096432E60641C0D682A46E5407FF472
:100A400031AFBDE8F88F000008040140000011102C
:100A5000001002400000014000080140000C01406D
:100A600000100140001401408068084000D00120BF
:100A700070470AB1016170470904FBE701488068CB
:100A8000704700002C000020704770472DE9F041AE
:100A9000016804464A694E6890F83E000025D74335
:100AA000FA050BD4F243D20508D46FF48072012505
:100AB0004A6121680A6842F400420A60B90508D414
:100AC000F143C90505D422686FF4007145F00205B1
:100AD0005161790525D4F143C90522D4638D94F879
:100AE0003D10226B202808D13BB9212910D029299B
:100AF0000ED0282901D1212A0AD022686FF4806102
:100B0000516145F00405102806D0402804D008E0C3
:100B1000204602F095FA04E02068016841F4007173
:100B20000160380508D4F043C00505D421686FF48E
:100B3000006045F008054861002D07D0206C28436F
:100B400020642046BDE8F04101F0F6BDBDE8F0812B
:100B50002DE9F047026800215368C66A90F83E40CC
:100B600090F83D50102C12D0402C10D0046C002C6A
:100B70007DD05469E443A6077AD4DE43B60577D422
:100B8000036C03B19169BDE8F04702F035BA97698B
:100B900051694FF42A0CC9435FEAC1784FF02A49E2
:100BA00004D066452AD04E4528D010E0DE43B60575
:100BB0000DD4C16A614501D1012103E0C16A4945F3
:100BC00001D10821C162BDE8F04702F0A9B80E07C3
:100BD00016D4DE43B60513D4416CC9B21161416B22
:100BE00009B1896A29B9816B002907D0896A00296E
:100BF00004D00068416841F400614160BDE8F087BD
:100C00008E0706D4DE43B60503D4BDE8F04701F0F5
:100C1000DBBFFE43526876074FEA02521DD4002A1A
:100C2000ECDB0A0608D4DA43520505D4490705D59A
:100C3000BDE8F04701F06CBF4907DFD4D94389050F
:100C4000DCD4212D05D0402CD8D1BDE8F04702F0EE
:100C5000ADB8BDE8F04701F019BF002ACEDB4A0667
:100C60000BD4DA43520508D4490708D501E00DE05A
:100C70000EE0BDE8F04701F08FBE4907BED4D9436E
:100C80008905BBD4BDE8F04701F019BE916970E752
:100C9000E10606D4D943890503D4BDE8F04702F044
:100CA00017BA2821212D27D0292D25D0650655D406
:100CB000DD436D0552D4640752D590F83D30448D24
:100CC000002C9BD01269446A2270426A521C426214
:100CD000428D521E4285428D002A8FD12A2B8DD102
:100CE0000268536823F4806353602222026380F811
:100CF0003D1000F015FB81E7250623D4DD436D058B
:100D000020D4640720D590F83D30448D002CF2D0DB
:100D1000446A24781461426A521C4262428D521E17
:100D20004285428D002AE6D1292BE4D1026853681E
:100D300023F4806353602122026380F83D1000F0A9
:100D4000F0FA5BE76107D6D4D9438905D3D4418D46
:100D50000029D0D0416A097811610AE06107CAD43C
:100D6000D9438905C7D4418D0029C4D01169426A8D
:100D70001170416A491C4162418D491E41853DE720
:100D80007047000070B5040025D094F83D000025A0
:100D900020B984F83C50204600F084FA242084F8DE
:100DA0003D002068016821F00101016020680168B0
:100DB00041F4004101602068016821F400410160B4
:100DC00000F0DEFB4D4A6168914201D84C4900E0D9
:100DD0004C49884201D2012070BD4B492368B0FBC9
:100DE000F1F15E6826F03F060E435E606368934251
:100DF00006D94FF4967359434FF47A73B1FBF3F16C
:100E00002368491C1E6A26F03F0631431962616857
:100E1000914210D84900401EB0FBF1F2521CC2F3BF
:100E20000B02042A01D2042022E0B0FBF1F0401CA6
:100E3000C0F30B001CE0A268F2B301EBC10303EBAB
:100E40000116431EB3FBF6F35B1C43F480431B0502
:100E500049D092B301EBC10202EB0111401EB0FB7D
:100E6000F1F0401CC0F30B0040F4804040F400401F
:100E70002168CA694CF6FF739A431043C861D4E9EC
:100E8000071001432068026822F0C002114301608C
:100E9000D4E9030101432068826848F2FF339A4392
:100EA00011438160D4E9050108432168CA6822F032
:100EB000FF021043C86001E00EE016E02068016800
:100EC00041F0010101602564202084F83D00256384
:100ED00084F83E50002070BD01EB4106431EB3FB79
:100EE000F6F35B1CB3E70120C2E701EB4101401EB2
:100EF000B0FBF1F0401CC0F30B00B7E7A086010087
:100F000080841E0000093D0040420F00704770477A
:100F100070477047704700002DE9FF4F83B00025F0
:100F2000DDE910799A4693460446DDF8488000953D
:100F3000FFF7A4FD064694F83D0020287CD1192334
:100F4000012288492046009602F09CF90028F5D13C
:100F500094F83C0001286FD0012084F83C00206800
:100F60000168C90703D1016841F0010101602068EF
:100F7000016821F400610160222084F83D004020D6
:100F800084F83E0025646762A4F82A90608D20856D
:100F90007548E062CDE9008653465A4620460499DA
:100FA00001F058FF00287CD1208DDFF8C091202768
:100FB00068B1012814D00228206801681ED041F4CD
:100FC000806101602068416980690090BCE0206810
:100FD000416981690091016841F400710160B3E0E9
:100FE0002068016821F48061016072B6206841695F
:100FF00081690091016841F400710AE041F40061E7
:10100000016072B62068416981690091016821F42C
:101010008061016062B697E0032865D801280CD092
:10102000022843464FF000024946204600960BD066
:1010300002F028F9A8BB0CE091E032464146204678
:1010400002F0C6F968BB72E002F01CF948BB72B648
:1010500033E02068016821F48061016072B6206885
:101060000069616A0870606A401C6062208D401EE1
:101070002085608D401E60853D4846F2A8110068BD
:10108000B0FBF1F0C0EBC00000EB80000090401E10
:10109000009007D020684069C04340070DD50098F4
:1010A000F5E727E044F8305F6773A573206940F0E7
:1010B0002000206162B625731CE02068016841F4BD
:1010C0000071016020680069616A0870606A401CF4
:1010D0006062218D491E2185618D491E618562B640
:1010E00021680969017026E032464146204602F037
:1010F0006FF918B1012007B0BDE8F08F20680069D2
:10110000616A0870606A401C6062208D401E81B276
:101110002185608D401E608520684269D243520758
:1011200012D4032903D1016821F480610160206891
:101130000069616A0870606A401C6062208D401E10
:101140002085608D401E6085208D00287FF464AF6F
:1011500084F83D7084F83E5084F83C50CBE7022080
:10116000C9E70000020010000000FFFF04000100BA
:10117000380000202DE9FF4F83B09A46DDE9119732
:1011800093460446DDF84080FFF778FC054694F866
:101190003D0020287FD11923012240492046009597
:1011A00002F070F8002876D194F83C00012872D043
:1011B000012084F83C0020680168C90703D1016858
:1011C00041F0010101602068016821F400610160C3
:1011D000212084F83D00402084F83E00002626644B
:1011E000C4F82480A4F82A90608D20852C48E06201
:1011F000CDE9007553465A462046049901F0A8FEF1
:1012000070B930E02A463946204602F019F958B143
:10121000206C042804D12068016841F40071016049
:10122000012007B0BDE8F08F606A2168007808618E
:10123000606A401C6062218D491E89B22185628DE1
:10124000521E628522685369DB435B070BD469B188
:1012500000781061606A401C6062208D401E20850D
:10126000608D401E6085208D0028CBD12A463946EE
:10127000204601F0DBFF0028CAD154F83D0B01687D
:1012800041F400710160202004F81E09E6776677BA
:101290000020C6E7FFE70220C3E7000002001000BD
:1012A0000000FFFF10B586B000210091019102916E
:1012B00003910068174988422AD1174CA06940F071
:1012C0000800A061A069694600F008000490C020F1
:1012D000009012200190032003901048FFF7D4FAE9
:1012E000E06940F40010E061E069002200F40010C1
:1012F000049011461F2000F07BF81F2000F06AF8D0
:1013000000221146202000F073F8202000F062F83F
:1013100006B010BD0054004000100240000C014017
:1013200070477047024881680278114481607047B5
:101330002C000020074810B5016841F01001016041
:10134000032000F075F80F2000F006F800F024F8F4
:10135000002010BD0020024070B50D4D04464FF432
:101360007A712878B1FBF0F00A490968B1FBF0F016
:1013700000F0DCFA48B9102C07D200222146501E9A
:1013800000F036F800206C6070BD012070BD0000D8
:101390002C000020380000200C4808B5816941F07D
:1013A00001018161816901F001010091C16941F090
:1013B0008051C161C06900F08050009004484168CC
:1013C00021F0E06141F08061416008BD0010024001
:1013D00000000140002809DB00F01F0201219140BC
:1013E0004009800000F1E020C0F8001170470000C3
:1013F000F0B40E4B1B680C46C3F30223C3F1070580
:10140000042D00D90425191D072901D2002300E06D
:10141000DB1E012606FA05F1491E214099409E4037
:10142000761E16403143F0BC02F03DBE0CED00E0EC
:10143000064900F0070208684FF6FF03184040EA2B
:101440000220034A10430860704700000CED00E0E2
:101450000000FA052DE9F0470F46050061D0434E24
:10146000306800F00700B84209D2306820F0070069
:1014700038433060306800F00700B84251D1286826
:101480003B4C810712D5400703D5606840F4E0600B
:1014900060602878000703D5606840F460506060A1
:1014A0006068A96820F0F000084360602878C007F1
:1014B00028D06868012810D02168022810D0890738
:1014C00000292EDA616821F0030101436160FFF712
:1014D000D5FA804641F288390DE021688903EFE7AB
:1014E0008901EDE7FFF7CAFAA0EB0801494502D9E7
:1014F0000320BDE8F0876068696800F00C00B0EB7D
:10150000810FEFD1306800F00700B8420BD9306886
:1015100020F0070038433060306800F00700B84220
:1015200001D00120E5E72878400705D56068E96823
:1015300020F4E060084360602878000706D5606802
:10154000296920F4605040EAC100606000F038F87A
:101550006168084AC1F30311515CC840064908603C
:1015600006480068FFF7F8FE0020C2E700200240AE
:1015700000100240B847000838000020300000206A
:101580000448054900684968044AC1F30221515CD6
:10159000C84070473800002000100240C8470008CB
:1015A0000448054900684968044AC1F3C221515CF6
:1015B000C84070473800002000100240C8470008AB
:1015C0000E4A51680E4801F00C03042B11D0082B71
:1015D0000FD10C48C1F38343C903C05C0AD55168DD
:1015E000084AC1F34041921E515C054A5043B0FB8A
:1015F000F1F0704704494843704700000010024072
:1016000000127A00A847000800093D002DE9F84FB4
:10161000040070D02078C04DC00749D06868C0F37E
:101620008100012807D06868C0F38100022809D131
:101630006868C00306D52868800339D5606800282B
:10164000E7D035E06068B0F5803F0BD010B1B0F561
:10165000A02F11D0286820F480302860286820F45A
:10166000802002E0286840F480302860606890B1F3
:10167000FFF704FA06460AE0286840F48020286054
:10168000F0E700BFFFF7FAF9801B642873D82868D9
:101690008003F7D50CE0FFF7F1F9064605E000BF3F
:1016A000FFF7ECF9801B6428F0D828688003F7D492
:1016B00020789A4E80074FF001094FF0000839D585
:1016C000686810F00C0F07D06868C0F3810002282A
:1016D00009D16868C00306D42868800714D520693A
:1016E000012808D110E02069B0B1C6F80090FFF7DA
:1016F000C5F9074605E00AE1FFF7C0F9C01B02285B
:10170000C4D828688007F7D52868616920F0F800F8
:1017100040EAC10028600DE0C6F80080FFF7AEF98E
:10172000074604E0FFF7AAF9C01B022823D828685F
:101730008007F7D4207800072CD57948A169D9B162
:10174000C0F80090FFF79AF9074604E0FFF796F912
:10175000C01B02280FD8686A8007F7D571484FF47C
:10176000FA510068B0FBF1F0009000BF0098411EF4
:101770000091FAD20EE080E0C0F80080FFF77EF919
:10178000074604E0FFF77AF9C01B022875D8686A9B
:101790008007F7D42078400760D5E8690027C000AB
:1017A00008D4E86940F08050E861E869012700F05A
:1017B000805000905C480168C90513D401688346D5
:1017C00041F480710160FFF759F9824606E000BFDD
:1017D000FFF754F9A0EB0A0064284ED8DBF80000AC
:1017E000C005F5D5E06801280AD008B1052813D056
:1017F000286A20F001002862286A20F0040002E034
:10180000286A40F001002862E06841F2883B98B104
:10181000FFF734F982460BE0286A40F004002862A2
:10182000EEE700BFFFF72AF9A0EB0A0159455AD8A5
:10183000286A8007F6D50CE0FFF720F9824605E01C
:10184000FFF71CF9A0EB0A0159454CD8286A80071C
:10185000F6D41FB1E86920F08050E861E06988B3F0
:101860006968C1F38101022944D00228C6F860806A
:1018700004D0FFF703F9044638E034E0FFF7FEF840
:10188000074604E0FFF7FAF8C01B02282BD82868A7
:101890008001F7D4206AB0F5803F05D16868A1685F
:1018A00020F4003008436860D4E9080108436968FF
:1018B00021F4741108436860C6F86090FFF7DEF801
:1018C000044606E025E000BFFFF7D8F8001B022819
:1018D00009D828688001F7D51BE000BFFFF7CEF8D4
:1018E000001B022802D90320BDE8F88F2868800178
:1018F000F4D40EE00128F7D06868226A00F4803141
:10190000914204D1616A00F47010884201D0012034
:10191000EAE70020E8E70000001002400000424231
:1019200080044242380000200070004010B5401E84
:10193000B0F1807F01D3012010BD4FF0E024606141
:101940000F21601702F0AFFB0020A061072020618B
:10195000002010BD7047704770B590F83C20012AF8
:1019600026D0012480F83C40022280F83D20036804
:101970005A689D6822F070060A6832435A600D4B1F
:1019800002689A4208D0B2F1804F05D00A4B9A42C1
:1019900002D00A4B9A4204D1496825F080031943CA
:1019A000916080F83D40002180F83C10084670BDF1
:1019B000022070BD002C01400004004000080040DF
:1019C00010B5040003D094F83D0010B107E00120E9
:1019D00010BD002084F83C00204600F01FF80220D3
:1019E00084F83D00211D206801F0A0FF012084F84B
:1019F000460084F83E0084F83F0084F8400084F8F4
:101A0000410084F8420084F8430084F8440084F8DC
:101A1000450084F83D00002010BD000008B50068B6
:101A20000649884208D10648816941F40061816114
:101A3000806900F40060009008BD0000002C0140A7
:101A40000010024070B5044690F83C0000250128C3
:101A500017D0012684F83C60022084F83D002068FD
:101A6000826822F0770222F47F4282600868502860
:101A700038D00DDC20284FD005DC90B3102811D1D0
:101A80004AE0022070BD302846D040280AD13BE011
:101A900060282FD070280DD0B0F5805F03D0B0F54E
:101AA000005F12D0012584F83D60002084F83C00DE
:101AB000284670BDCB68D1E90121206801F07FFF85
:101AC0002068816841F0770109E0CB68D1E9012104
:101AD000206801F074FF2068816841F480418160D2
:101AE000E1E719E0CA684968206802F01DF8502152
:101AF000206806E0CA684968206802F026F860217C
:101B0000206801F066FFCEE7CA684968206802F0E5
:101B10000BF840212068F4E7226801461046F0E700
:101B200070472DE9F04104460068C66805694FF02A
:101B30000007A90713D5B10711D5F91E01610120CE
:101B40002077206880698007204602D0FFF7E8FFF1
:101B500004E000F0A5F8204600F054F92777680764
:101B600016D5700714D521686FF0040008610220B3
:101B700020772068806910F4407F204602D0FFF76C
:101B8000CFFF04E000F08CF8204600F03BF9277707
:101B9000280715D5300713D521686FF008000861B4
:101BA000042020772068C0698007204602D0FFF714
:101BB000B7FF04E000F074F8204600F023F927771F
:101BC000E80616D5F00614D521686FF010000861FC
:101BD000082020772068C06910F4407F204602D09A
:101BE000FFF79EFF04E000F05BF8204600F00AF9E2
:101BF0002777E80708D0F00706D021686FF00100CA
:101C00000861204600F04EF9280608D5300606D5B2
:101C100021686FF0800008612046FFF79BFE680690
:101C200008D5700606D521686FF04000086120468F
:101C300000F039F9A8060AD5B00608D521686FF07A
:101C4000200008612046BDE8F041FFF784BEBDE8F2
:101C5000F081000000B585B0002100910191029152
:101C6000039100680B49884211D10B48816941F00A
:101C7000080181618069694600F008000490032032
:101C800000900220019003900448FEF7FDFD05B08E
:101C900000BD00000004004000100240000C0140A4
:101CA000704770B5044690F83C0000260D460128A8
:101CB0000FD0012084F83C006AB1042A1DD0082A04
:101CC0002FD00C2A3FD00126002084F83C0030465B
:101CD00070BD022070BD206801F084FE206881691B
:101CE00041F0080181612068816921F0040181616E
:101CF000206881692A69114311E0206801F09AFE89
:101D00002068816941F4006181612068816921F462
:101D100080618161206881692A6941EA02218161CB
:101D2000D2E7206801F0B2FE2068C16941F00801E5
:101D3000C1612068C16921F00401C1612068C169E5
:101D40002A69114311E0206801F0CCFE2068C169C6
:101D500041F40061C1612068C16921F48061C16101
:101D60002068C1692A6941EA0221C161ACE710B566
:101D7000040003D094F83D0010B107E0012010BD2D
:101D8000002084F83C00204600F01EF8022084F871
:101D90003D00211D206801F0C9FD012084F84600A6
:101DA00084F83E0084F83F0084F8400084F8410045
:101DB00084F8420084F8430084F8440084F8450025
:101DC00084F83D00002010BD08B500680B4988422A
:101DD00012D10B48C16941F00201C161C069002202
:101DE00000F00200009011461D20FFF701FBBDE846
:101DF00008401D20FFF7EEBA08BD000000040040B7
:101E0000001002407047000010B50446022249B19C
:101E100004290ED0082913D094F84100012816D0C7
:101E2000012010BD94F83E000128F9D184F83E202D
:101E30000FE094F83F000128F2D184F83F2008E039
:101E400094F840000128EBD184F8402001E084F8A8
:101E500041200122206801F0A5FD0F492068884239
:101E600003D1426C42F4004242642068884208D0A8
:101E7000B0F1804F05D00949884202D00849884214
:101E800004D1816801F00701062903D0016841F0FF
:101E900001010160002010BD002C01400004004041
:101EA000000800407047704738B5044690F842007B
:101EB000202801D0022038BD51B14AB10120206351
:101EC00000206063204602F05FF8216B012901D0F9
:101ED000012038BD21680A684968009121680C31E9
:101EE00051E8002F42F0100241E80023002BF5D109
:101EF00038BD000010B5074C036807480122A34213
:101F000002D1C180027010BD044CA342FBD14181BB
:101F1000427010BD00440040000000200038014025
:101F200010B504460068406994F84110C0F3C01031
:101F3000212911D180B12068143050E8001F21F010
:101F4000800140E80012002AF5D1A06B08B1FEF72D
:101F5000CBFA204601F04CFF2068406994F842100B
:101F6000C0F38010222911D180B12068143050E8CC
:101F7000001F21F0400140E80012002AF5D1E06B7B
:101F800008B1FEF7B1FA204601F00BFF002010BDAA
:101F900070470000F8B5016804460868CA684B69D4
:101FA00010F00F0F4FF0000559D003F0010602F4B6
:101FB0009077374365D0C10705D0D10503D5616C53
:101FC00041F001016164410705D5D90703D0616C77
:101FD00041F002016164810705D5D90703D0616C26
:101FE00041F004016164010707D502F0200131438B
:101FF00003D0616C41F008016164616C00293AD042
:10200000800604D5900602D5204601F0FFFE206828
:102010004069616CC0F38010090700D460B32046AA
:1020200001F0BFFE20684069400621D520681430C9
:1020300050E8001F21F0400140E80012002AF5D1CD
:10204000E06BA8B16D494163E06BFEF771FA0028BF
:1020500011D0E06B416B01B0BDE8F040084783064A
:102060000FD593060DD52046BDE8F84001F0CEBE51
:102070002046FFF78DFFF8BD2046FFF789FF656416
:10208000F8BD266B2023012E7CD1C6067AD5D60654
:1020900078D508684868009048694FF00206400605
:1020A00040D5E16B086840680004000CE8D0A28DC0
:1020B0008242E5D9E085886920282DD020680C303F
:1020C00050E8001F21F4807140E80012002AF5D189
:1020D0002068143050E8001F21F0010140E8001290
:1020E000002AF5D12068143050E8001F21F040018B
:1020F00040E80012002AF5D184F8423025632068B8
:102100000C3050E8001F21F0100140E80012002AB6
:10211000F5D1E06BFEF7E8F96663A08DE18D401A1A
:1021200081B22AE0A08DE18D401A81B2E08D0028B5
:10213000A6D00029A4D022680C3252E8000F20F467
:10214000907042E80007002FF5D12068143050E865
:10215000002F22F0010240E80027002FF5D184F87B
:102160004230256320680C3050E8002F22F0100226
:1021700040E80023002BF5D166632046FFF7BAFE46
:10218000F8BDFFE705062BD5150629D594F84100C3
:102190002128F5D1A068B0F5805F01D12069B0B1E8
:1021A000206A411C2162216800784860E08C401E52
:1021B0000004000CE084E3D12068C16821F08001B4
:1021C000C1602068C16841F04001C160D8E7206A61
:1021D0000088C0F308004860206A801C2062E5E7A0
:1021E0004006CDD55006CBD5CA68204622F0400225
:1021F000CA6084F8413000F04DF9C1E7A53C000801
:1022000070B5040004D094F84100002510B106E038
:10221000012070BD84F84050204600F023F82420AF
:1022200084F841002068C16821F40051C160204653
:1022300001F04EFE2068016921F49041016120689F
:10224000416921F02A0141612068C16841F40051CF
:10225000C1606564202084F8410084F84200656311
:10226000002070BD2DE9F04186B000250095019554
:10227000029503950446DFF860C1036857480221C0
:102280000322574F80264FF0100863454CD18369D5
:1022900043F480438361836903F480430493836937
:1022A00043F0040383618069039200F0040004900A
:1022B0000802CDE9000169463846FEF7E5FAF0006C
:1022C000CDE90005694638460295FEF7DDFA464F2E
:1022D0004448C7E90005C7E902563D617D61BD611B
:1022E0003846FD61FEF71EFA08B1FEF7FBF8E7631A
:1022F0007C623D4F3B4844371438C7E902563D6184
:102300007D61BD61FD61C7E900083846FEF70AFA44
:1023100008B1FEF7E7F8A7630022114625207C628A
:10232000FFF766F8252051E0DFF8C0C063454FD1C4
:10233000C36943F40033C361C36903F400330493F6
:10234000836943F0040383618069039200F0040011
:1023500004900420CDE9000169463846FEF794FA5E
:102360000820CDE90005694638460295FEF78CFA4B
:102370001D4F1C4888371430C7E90005C7E90256CD
:102380003D617D61BD613846FD61FEF7CBF908B165
:10239000FEF7A8F8E7637C62134F1248CC37283069
:1023A000C7E902563D617D61BD61FD61C7E9000875
:1023B0003846FEF7B7F908B1FEF794F8A763002294
:1023C000114626207C62FFF713F82620FFF702F85B
:1023D00006B0BDE8F0810000003801400010024066
:1023E0000008014058000240300400200044004032
:1023F000704770472DE9F843044690F8410098462D
:1024000016460D46202802D00220BDE8F88385B18B
:102410007EB100206064212084F84100FEF72EFB8D
:10242000A6848146E684A0682027B0F5805F02D0AC
:1024300003E00120E9E7206910B12E4600250EE0F7
:1024400000260CE08021204601F0E6FDA8B9C6B1C7
:1024500016F8010B21684860E08C401EE084E08C97
:102460004B464FF00002CDF800800028EAD14FF033
:102470004001204601F0D0FD40B184F841700320B6
:10248000C3E735F8020BC0F30800E3E784F84170B6
:102490000020BAE770470000F0B589B0012707A80F
:1024A000CDE9000700268DF81C604FF4FA753B4615
:1024B0000F22BE2102952A48FEF72EFD294C18B99D
:1024C0009DF81C00BC2803D0A681E68109B0F0BDB0
:1024D00085208DF8200008A8CDE9000701232022DF
:1024E000BE2102951E48FEF745FE3220FEF780F918
:1024F0000596102003A90696CDE9001003960496D0
:102500000123B0220295BE211548FEF705FD0028E3
:10251000DCD19DF80C00400820839DF80D00400898
:1025200060839DF811009DF80E1000F0030241EA4F
:102530000221C90821829DF80F1000F00C0041EA29
:102540008010C0086082BDF81200A082BDF816009D
:10255000E082BDF81800A081BDF81A00E081B5E75F
:10256000BC020020000000202DE9FF5F354C0D4625
:102570000646B4F90E00B4F90C10334F884213D05C
:10258000B4F91600B4F9141088420DD0002003905D
:102590006422042103A88DE807000123A822BE219C
:1025A0002A48FEF7B9FC18B137602F60BDE8FF9FDD
:1025B000B4F91210B4F91090BDF90CA0BDF90E8059
:1025C000A1EB090001F096FF0090B4F90E00B4F9F8
:1025D0000C70C01B01F08EFF8346A8EB070001F0D2
:1025E00089FF594601F0A8FE009901F09BFF0746BC
:1025F000484601F07FFF394601F03CFE3060B4F9F7
:102600001A00B4F91860801B01F074FF8046B4F919
:102610001600B4F91470C01B01F06CFF0446AAEB5D
:10262000070001F067FF214601F086FE414601F0F8
:1026300079FF0446304601F05DFF214601F01AFEA5
:102640002860B3E700000020CDCCC7C2BC02002048
:10265000FEE700000148FEF719BA0000BC020020A6
:102660000148FEF775BA0000BC02002038B5406A88
:10267000002190F83D202B4B46F2A8141B68B3FBB9
:10268000F4F3C3EBC30303EB830300933BB15B1E83
:10269000009303681B689B0505D5009BF6E7036C58
:1026A00043F020030364436B03B19962836B03B16E
:1026B000996203681C6824F480641C604185436B44
:1026C00003B15963836B03B1596303681C6824F039
:1026D00001041C6090F83D402023602C0BD028247E
:1026E00034EA02020FD080F83D3080F83E1000BF7F
:1026F000FEF746FB38BD80F83D3080F83E1001649F
:10270000FEF7C2F938BD0268136843F00103136095
:102710000268136843F480631360016380F83D40EE
:10272000E6E700003800002000684169C943090657
:1027300001D400210161704770B5044690F83D0056
:1027400094F83E10102901D0402906D1222804D146
:1027500021680A6822F400620A60282131EA000236
:102760004FF000054FF0200626D021684968090582
:1027700005D4602803D084F83D6084F83E5025637A
:1027800020684168090537D5416821F4006141603E
:10279000606B90F821203C49012A11D04163606BA5
:1027A000FDF7C6FE38B32068016821F00101016021
:1027B00084F83D60606B1CE0256384F83D10DFE722
:1027C000A06B4163A06BFDF7B3FEA0B12068416927
:1027D000C943490605D40069616A0870606A401CF3
:1027E00060622068016821F00101016084F83D60A9
:1027F000A06B416B884710E094F83D10602910D021
:102800004169C943490605D40069616A0870606A74
:10281000401C60622046FEF7B3FA206CC1071CD151
:1028200015E084F83D6025644169C943490605D433
:102830000069616A0870606A401C60622068016813
:1028400021F0010101602046FEF71EF9E5E781074E
:1028500003D4410701D4000704D52068416821F45E
:10286000E061416094F83D00216C49070BD52828B0
:1028700009D10648E062256384F83D6084F83E5043
:102880002046FEF743FB70BD6D2600080000FFFFE9
:1028900001684A69D24352050FD46FF480624A61DD
:1028A000002140F8301F202242738173026942F0F8
:1028B000040202610173012070470020704710B5C7
:1028C000C26A438D0168042B06D0438D032B08D0C8
:1028D000438D022B1DD012E04A6822F480624A60C8
:1028E0000CE04B6823F480634B60042A06D0022A74
:1028F00004D001680A6822F480620A6001680969EC
:10290000426A1170416A491C4162418D491E4185EC
:1029100010BD012A34D0102A32D0042A34D0022A21
:1029200032D00B6843F400730B6001680969436A95
:102930001970416A491C4162438D5B1E43850368DF
:102940001B690B70416A491C4162418D491E4185DA
:1029500001684B6823F440734B60202180F83D10E0
:1029600090F83E300021402B80F83E1010D0082A0D
:1029700002D0202A00D012210163FEF7C8FA10BD50
:102980000B6823F48063CFE70B6843F48063CBE7E5
:102990000163FEF7BEFA10BD38B590F83D1022294C
:1029A00010D1C36A418D03290DD901680969426AB2
:1029B0001170416A491C4162418D491E4185418D1A
:1029C000032906D038BDC26A022A02D0012906D0E6
:1029D00029B10068416821F48061416038BD2A4A0C
:1029E00046F2A81400211268B2FBF4F202EB820254
:1029F000009202682024009D6D1E009526D0156867
:102A0000AD05F8D4156825F4806515600268556831
:102A100025F4E065556002681269456A2A70426AC9
:102A2000521C4262428D521E428580F83D4090F811
:102A30003E2080F83E10402A21D0082B02D0202BC7
:102A400000D012210163FEF762FA38BD036C43F037
:102A500020030364536823F4E0635360026812693F
:102A6000436A1A70426A521C4262428D521E42856B
:102A700080F83D4080F83E10FEF782F938BD0163D2
:102A8000FEF747FA38BD00003800002010B5C26AD2
:102A900090F83D1021290BD1418D51B1416A026856
:102AA00009781161416A491C4162418D491E418585
:102AB00010BD20230021082A13D0202A11D012F59E
:102AC000803F0ED00268546824F4E0645460112200
:102AD000026380F83E1080F83D3000BFFEF718FA20
:102AE00010BD0268546824F4E064546002681468FD
:102AF00044F400741460016380F83D3090F83E2087
:102B000080F83E10402AE9D1FEF704FA10BD00001B
:102B100010B590F83D1090F83E30C26A048DB4B103
:102B2000212903D0402B11D122290FD1418DE1B3AE
:102B300090F83E10402942D0416A0268097811613C
:102B4000416A491C4162418D491E418510BD2129C0
:102B5000E8D120230021082A13D0202A11D012F511
:102B6000803F0ED00268546824F4E064546011225F
:102B7000026380F83E1080F83D3000BFFEF7C8F9D0
:102B800010BD0268546824F4E0645460026814685C
:102B900044F400741460016380F83D3090F83E20E6
:102BA00080F83E10402AE9D100E002E0FEF7B2F9D9
:102BB00010BD0068416821F48061416010BDBDE82E
:102BC000104000F0F3B8000078B590F83E50C26AAB
:102BD000046B90F83D6000230168222E73D1066DCE
:102BE0000EB9402D6FD0056D1DB90569B5F5404F83
:102BF0001BD0458D95B3468D484D012E20D0448D78
:102C0000022C4DD00C6844F480640C6001684C6860
:102C1000240579D5AA4273D0012A71D0082A6FD031
:102C2000102A6DD0202A6BD06EE04A698A69009222
:102C30000A6842F480720A60016D491C016578BD22
:102C4000AA4214D10A6822F480620A6001684A68C4
:102C5000120504D50A6822F4806217E0FFE74A698A
:102C60008A6900920A6842F400720A6050E0082AF9
:102C700010D0202A0ED0122C0AD0042A03D0022A07
:102C800001D0102AE6D10A6842F480620A603BE073
:102C9000012ADFD00A6822F480620A600168DEE758
:102CA000042A11D0022A0FD0102A0DD00C6844F447
:102CB00000640C6001684C698C6900940C6824F411
:102CC00080640C6008E025E00C6844F480640C60CB
:102CD00001684C698969009101684C68240517D521
:102CE000AA4207D0012A05D0082A03D0102A01D011
:102CF000202A0DD14A6842F480524A6008E0FFE77A
:102D00004A6842F480524A6001684A6989690091C0
:102D1000036578BD48698869009078BD0000FFFFB1
:102D200090F83E10402910D00169B1F5804F19D0BC
:102D3000016DA9B3016D012910D1416C5FF0F10261
:102D400001F4407142EAD11106E0016D0029416CA5
:102D500005D0C9B241F0010100680161704701F07E
:102D6000FE01F9E790F83D102129416C09D0C9B264
:102D700041F0010102681161416B29B1896A49B9C9
:102D800002E001F0FE01F5E7816B0029E6D0896AD7
:102D90000029E3D00068416841F400614160704758
:102DA000FFE7416CF02201F44071CBE710B590F8D9
:102DB0003D10026D4AB1026D012A14D0026D022A43
:102DC00016D0BDE81040FFF7AFBCC16C0129816C83
:102DD00002D0C1F3072108E00268C9B21161016D98
:102DE000891C016510BD816CC9B20268116123E0C4
:102DF00022291CD0428D0AB1212920D0428D002ADF
:102E0000F0D12129EED101684A6822F4E0624A60DB
:102E100001680A6842F400720A60002101632022FE
:102E200080F83D2080F83E10FEF774F810BD016870
:102E30000A6842F480720A60016D491CD1E7416A58
:102E4000026809781161416A491C4162418D491E3D
:102E5000418510BD2DE9F84F0446006889460B9D59
:102E600001689846174641F4806101602068016856
:102E700041F48071016000954FF0011B002259461A
:102E800020460A9B00F0FEF94FF4007A40B120681A
:102E90000068C00501D5C4F840A00320BDE8F88F44
:102EA000216809F0FE0008612B46284920460A9A4D
:102EB00000F030FAF0BB20684169806900902A4632
:102EC00020460A9900F0BCFA40B1206C04283AD19F
:102ED0002068016841F40071016034E0FEB2B8F18D
:102EE000010F09D02168380A08612A4620460A994C
:102EF00000F0A6FA0028E8D1206806612A4620469C
:102F00000A9900F09DFA0028DFD12068016841F499
:102F10008071016000950022594620460A9B00F00E
:102F2000B1F90028B3D1216809F0FF0040F0010099
:102F3000086100E007E02B46044920460A9A00F0A9
:102F4000E9F90028AAD00120A8E70000020001004A
:102F50002DE9F843044600680D46DDE9089701684D
:102F60009846164641F4807101604B4600224FF0AE
:102F700001112046009700F085F948B120680068EB
:102F8000C00502D54FF4007020640320BDE8F8832B
:102F9000216805F0FE0008613B464A461549204677
:102FA00000F0B8F988B920684169806900903A4614
:102FB0004946204600F044FA48B1206C042804D168
:102FC0002068016841F4007101600120DEE7F5B27C
:102FD000B8F1010F09D02168300A08613A46494624
:102FE000204600F02DFA0028E7D120680561002076
:102FF000CCE700000200010038B50C4690F83D20F7
:1030000000212825954302680B4605D05169916936
:10301000009180F83C3038BD556825F480655560D6
:10302000E243540700D50121120601D5828900E050
:10303000028B80F83C3092B2FDF727FD38BD0000CE
:103040002DE9F04190F83D300446C26A0021202667
:103050001E4F00686FF48065082A01D0202A01D134
:10306000282B04D0212B17D04561BDE8F081E76201
:10307000426822F4E062426020684561206802688C
:1030800022F480620260216384F83D6084F83E107F
:103090002046FDF73BFFE8E7E7622122226384F840
:1030A0003D6084F83E10416821F4E0614160206891
:1030B00045612068016821F4806101602046FFF7C6
:1030C00033FB2046FEF72DF9CFE700000000FFFF9D
:1030D000F8B590F83D6004460068416821F4E0616D
:1030E00041602068002541690091016841F00101BB
:1030F00001602068016821F48061016020684168F6
:10310000090520D5474F222E48D02A2E46D0616B84
:10311000096849686185618D19B1216C41F004012C
:103120002164416821F400614160606BFDF74CFA55
:10313000012808D0606B4763606BFDF7F9F910B1A7
:10314000606B416B8847608D08B320684169C94353
:10315000490708D40069616A0870606A401C6062AF
:10316000608D401E608520684169C943490608D4C6
:103170000069616A0870606A401C6062608D401E70
:103180006085608D18B1206C40F004002064206CD4
:1031900000B32046BDE8F840FFF7CEBAA16B09683E
:1031A00049686185618D19B1216C41F00401216488
:1031B000416821F400614160A06BFDF705FA012828
:1031C000C1D0A06B4763A06BFDF7B2F90028BAD05D
:1031D000A06BB6E72A2E06D12563282084F83D008F
:1031E0002046FEF79DF894F83D10202028290DD0A8
:1031F000216B222901D0222E07D1256384F83D00BE
:1032000084F83E502046FEF78BF8F8BD0649E1628F
:10321000256384F83D0084F83E502046FDF776FE95
:10322000F8BD00006D2600080000FFFF70B51646CF
:103230000D4604461EE02046FFF72AFB08B1012098
:1032400070BD681C16D0FDF719FC801BA84200D881
:1032500085B920684069C04340070BD5002044F879
:10326000300F20216173A073216941F02001216199
:103270002073E4E720684069C0434007DBD40020A6
:1032800070BD00002DE9F047984617460D460446EC
:10329000C1F30746DDF820902AE000BFB8F1FF3FF8
:1032A00026D0FDF7EBFBA0EB0901414502D8B8F1B0
:1032B000000F1DD12068012E16D0806925EA00007C
:1032C0000004000C12D00020B84211D1002044F8B4
:1032D000300F20216173A073216941F02001216129
:1032E00020730120BDE8F0874069E7E70120EBE7A4
:1032F0002068012E0AD0806925EA00000004000C35
:1033000006D00020B842C9D00020EBE74069F3E7BF
:103310000120F7E72DE9F047984616460D4604468A
:103320004FF000094FF0200AC1F3074723E020685F
:103330004069C043400515D42068016841F400711C
:10334000016021686FF480604861C4F8309084F8AF
:103350003DA084F83E90216C41F00401216484F882
:103360003C9021E0701C06D0FDF788FBA0EB080024
:10337000B04203D816B1012F1FD021E02068012FE1
:1033800015D0806925EA00000004000C18D000BFA9
:1033900044F8309F84F80DA084F80E90216941F024
:1033A0002001216184F80C900120BDE8F08740697C
:1033B00025EA00000004000CEAD12068406901E021
:1033C0002068806925EA00000004000CAFD1ECE71A
:1033D0002DE9F041002590460E460446202728E0BE
:1033E0004069C043C0060CD454F8301B6FF0100085
:1033F000486144F810596777A577206A20622577DD
:1034000014E0FDF73BFBA0EB0800B04200D886B902
:1034100020684069C04340060BD544F8305F6773AD
:10342000A573206940F02000206125730120BDE8CC
:10343000F08120684169C9434906D1D40020F6E7EC
:1034400070B516460D4604461EE02046FFF720FAEA
:1034500008B1012070BD681C16D0FDF70FFB801B62
:10346000A84200D885B920684069C04300060BD542
:10347000002044F8300F20216173A073216941F0CE
:10348000200121612073E4E720684069C043000601
:10349000DBD4002070BD000070B540210B48FDF763
:1034A000E3FA0B4D04000ED1687901280BD1FDF72A
:1034B000E5FAA96A401AC82805D9FDF7DFFAA8621B
:1034C0006C71012070BD6C71002070BD000801405E
:1034D00000000020154808B5416941F00101416133
:1034E0004069002200F00100009011460E20FDF717
:1034F0007FFF0E20FDF76EFF002211460F20FDF723
:1035000077FF0F20FDF766FF002211461020FDF720
:103510006FFF1020FDF75EFF002211461120FDF71E
:1035200067FFBDE808401120FDF754BF00100240BE
:1035300070B586B00024204800940194029403944E
:10354000816941F010018161816901F010010491EC
:10355000816941F020018161816901F020010491BC
:10356000816941F004018161816901F004010491E4
:10357000816941F0080181618069104E00F0080006
:1035800040F604450490002229463046FDF771FAC2
:10359000C220CDE90004694609480294FDF774F998
:1035A00001200095CDE901040220039069463046D0
:1035B000FDF76AF906B070BD00100240000C014032
:1035C000000801400D4810B50B4901600C494160ED
:1035D00000214FF480428160C0E9031241618161A2
:1035E000C1610162FDF7CEFB002803D0BDE81040A9
:1035F000FCF778BF10BD000000540040BC02002062
:10360000A086010010B586B00024174800940194EC
:103610000294039404941349059401604721C0E97E
:1036200001144FF6FF71C0E9031444618461FEF791
:10363000C7F908B1FCF756FF4FF480500090694677
:103640000948FEF7FFF908B1FCF74CFF049404A900
:1036500005480594FEF780F9002801D0FCF742FFE9
:1036600006B010BD002C01401003002010B58AB038
:10367000002407941C2168460894FCF72CFE1B4884
:10368000194901604721C0E9011440F2E731C0E95E
:10369000031480218161FEF76AFB08B1FCF722FF69
:1036A000079407A911480894FEF756F908B1FCF7EA
:1036B00019FF6020CDE900040294082269460B48F6
:1036C0000494FEF7EEFA08B1FCF70CFF0C226946F1
:1036D0000648FEF7E6FA08B1FCF704FF0348FEF7D8
:1036E000B9FA0AB010BD00000004004058030020E1
:1036F0000C4810B50A4901604FF416514160002191
:1037000081600C22C160C0E904128161C161FEF7D1
:1037100077FD002803D0BDE81040FCF7E3BE10BDE4
:1037200000380140A00300200C4810B50A49016090
:103730004FF4E1314160002181600C22C160C0E999
:1037400004128161C161FEF75BFD002803D0BDE872
:103750001040FCF7C7BE10BD00440040E803002045
:10376000FEE700000C4910B58870C97801EB8101B3
:103770004C000A4900220B6838B1012807D0022802
:1037800002D1DA630868046410BDDA6300E0DC6328
:103790000868026410BD00000000002058030020EB
:1037A000FEE7704770B500F007010F48017101791D
:1037B00041F300020179007941F3400540F38004B0
:1037C0000A4E04213046521C641C6D1CFDF751F951
:1037D0002A4631153046FDF74CF92246F1143046A1
:1037E000BDE87040FDF745B900000020000C014025
:1037F000704700001CB510A1D1E90001CDE900011E
:103800000F4988788DF804000A798DF80520CB7867
:103810009DF802109DF803405040614041408DF8F2
:10382000063059408DF80710642308226946054880
:10383000FEF7E0FD1CBD00005AA5040200000000D8
:1038400000000020E8030020FEB5174D0E46294673
:1038500000F068FE00F032FE04462946304600F0D3
:1038600061FE00F02BFE11A30ECB8DE80E00220AA4
:103870008DF8042021469DF802309DF803508DF804
:1038800005404A40040A6B405340634043408DF872
:1038900006408DF807008DF8083064230922694638
:1038A0000548FEF7A7FDFEBD000020415AA5050111
:1038B0000000000000000000E8030020FDF732BD1A
:1038C00030B58FB028216846FCF705FD14210AA801
:1038D000FCF701FD01210804CDE900100024029449
:1038E00002250491CDE907504FF4E0100990684695
:1038F000FDF78CFE08B172B6FEE70F20CDE90A0590
:103900004FF48060CDE90C4002210AA80E94FDF727
:10391000A1FD002801D072B6FEE70FB030BD7047A0
:103920000148FEF7FEB8000058030020F0B5026819
:10393000194B1A4C1A4D4FF08047984205D0B842A7
:1039400003D0A04201D0A84203D122F070064A68F9
:103950003243984205D0B84203D0A04201D0A842D9
:1039600003D122F44074CA6822434C6922F08002D9
:10397000224302608A68C2620A688262984201D168
:1039800009690163012141610169C90703D0016926
:1039900021F001010161F0BD002C01400004004054
:1039A0000008004010B501F01F030121046A99408E
:1039B0008C430462016A9A401143016210BD10B544
:1039C000846842EA032224F47F440A43224382604B
:1039D00010BD826822F070020A4342F00701816044
:1039E0007047000030B5036A026A22F001020262E9
:1039F0004268846924F073050C682C4323F00205A7
:103A00008B682B430A4DA8420BD123F00805CB68E5
:103A100022F440722B434D6923F0040315438A6955
:103A20002A434260846149684163036230BD0000FB
:103A3000002C014030B5026A036A23F010030362D0
:103A4000436884690D6824F4E64444EA05248D68DB
:103A500022F0200242EA05120B4DA8420ED1CD6899
:103A600022F0800242EA05124D6923F4406343EAE2
:103A700085038D6922F0400243EA85034360846137
:103A800049688163026230BD002C014030B5036A91
:103A9000026A22F4807202624268C46923F40073ED
:103AA00024F073050C682C438D6843EA05230C4D04
:103AB000A8420ED1CD6823F4006343EA05234D6983
:103AC00022F4405242EA05128D6923F4806342EAEF
:103AD00005124260C4614968C163036230BD0000E1
:103AE000002C014030B5046A026A22F4805202625E
:103AF0004268C3690D6823F4E64343EA05238D68F1
:103B000024F4005444EA0534064DA84204D14D691A
:103B100022F4804242EA85124260C361496801642E
:103B2000046230BD002C014010B5036A046A24F021
:103B300001040462846924F0F00444EA021423F0CE
:103B40000A020A438461026210BD10B5036A046A66
:103B500024F010040462846923F0A00324F4704468
:103B600044EA023243EA01118261016210BD0000A1
:103B70002DE9F041424C207800287CD04148FEF7E6
:103B8000CFF9414D0020A5F1800208E02189FF29ED
:103B900003D8135C6B54491C2181401C80B2E1881E
:103BA0008842F3D300262670E68000F071F80020EA
:103BB0004FE0295C5A2960D129184A78A52A5CD19E
:103BC0008A7800EB020808F10307FF2F55D89F42BF
:103BD00043D21746002308E000EB030CAC445B1C07
:103BE0009CF803C0DBB28CEA07079342F4D308EBDE
:103BF0000503DB78BB4240D1C878091D0A2806D0EE
:103C00000B2808D00C280CD00D2818D01EE0022A52
:103C10001CD108780EE0022A18D10878FFF7C2FDFF
:103C20000AE0022A12D10878E070642801D96420E1
:103C3000E070A078FFF796FDFFF7DCFD06E0521E6E
:103C400092B24FF4FA731148FEF7D4FB08F1040066
:103C500080B22389C11C9942ABD338B199B2091AF9
:103C60008AB2291822810848FCF7F3FA2089B0F5B6
:103C7000807F00D12681BDE8F081401CE8E700008C
:103C800000000020E8030020BC000020A00300206A
:103C9000802202490248FEF707B900003C000020DC
:103CA000E803002010B5406A0021C185C184FEF7F9
:103CB0006FF910BD70B5446A2068406994F84110EE
:103CC000C0F3C0100025212904D118B1E584204695
:103CD00000F08EF82068406994F84210C0F380101C
:103CE000222904D118B1E585204600F05AF8606C0D
:103CF00040F0100060642046FEF74AF970BD10B530
:103D00000146406A096809684FF0000289062ED40E
:103D1000C28501680C3151E8003F23F4807341E80B
:103D20000034002CF5D10168143151E8003F23F034
:103D3000010341E80034002CF5D10168143151E849
:103D4000003F23F0400341E80034002CF5D120214E
:103D500080F84210016B012909D101680C3151E84A
:103D6000003F23F0100341E80034002CF5D14263FA
:103D7000016B012902D0FEF73BFB10BD818DFEF7E0
:103D8000B9F810BD10B5406A01214163016B0129EA
:103D900002D0FEF72EFB10BD818D4908FEF7AAF870
:103DA00010BD01680C3151E8002F22F4907241E8F7
:103DB0000023002BF5D10168143151E8002F22F0C7
:103DC000010241E80023002BF5D1016B012909D143
:103DD00001680C3151E8002F22F0100241E8002365
:103DE000002BF5D1202180F842100021016370479B
:103DF00001680C3151E8002F22F0C00241E8002395
:103E0000002BF5D1202180F84110704708B590F8BB
:103E10004210222901D0022008BD82684FF480534D
:103E20009A4201D1016921B1816A9A421BD04AB1FB
:103E30000AE00268816A5268C2F308020A80816A55
:103E4000891C08E0026972B10268526802F07F02C0
:103E50000A70816A491C8162C18D491E0904090CDE
:103E6000C18503D01BE002685268F1E70168CA68A7
:103E700022F02002CA600168CA6822F48072CA6017
:103E800001684A6922F001024A61202180F842104B
:103E900000214163026B012A03D0FEF7A9FA00203A
:103EA00008BD016301680C3151E8002F22F01002B7
:103EB00041E80023002BF5D101680A68D20602D53B
:103EC0000A6849680091818DFEF714F8E7E7000061
:103ED00070B5044600680169E26821F4405111435D
:103EE00001612169A0680843616908432168CA68C3
:103EF00041F20C639A430243CA6020684169A26997
:103F000021F44071114341611E492068884202D169
:103F1000FDF746FB01E0FDF733FB00EBC00101EBD1
:103F20000012606864218000B2FBF0F3B3FBF1F390
:103F30006FF018067343B2FBF0F5B2FBF0F605EB39
:103F40008305322303EB0515B5FBF1F5B6FBF1F65E
:103F500005F0F00505EB0615B2FBF0F6B2FBF0F04C
:103F6000B0FBF1F06FF01802504306EB800003EB5A
:103F70000010B0FBF1F0216800F00F0028448860C9
:103F800070BD00000038014038B58162044682856A
:103F9000002013466064222284F84220E56B1B4A0D
:103FA000AA62E56B1A4AEA62E56B1A4A2A63E26B77
:103FB00050630A462168E06B091DFCF7E1FB2068AD
:103FC000016840680090206948B120680C3050E8D2
:103FD000001F41F4807140E80012002AF5D12068EA
:103FE000143050E8001F41F0010140E80012002A9F
:103FF000F5D12068143050E8001F41F0400140E83E
:104000000012002AF5D1002038BD0000FF3C000856
:10401000853D0008B53C00082DE9F8439846174651
:104020000D460446089E24E0701C22D0FCF726FDB5
:10403000A0EB0800B0421AD8CEB12068C168490789
:1040400017D5802D15D0402D13D00168C94309071D
:104050000FD401680025406800902046FFF7A1FEBC
:104060000820606484F840500120BDE8F8830320F4
:10407000FBE72068006835EA000004D00020B84261
:10408000D2D00020F1E70120F9E700000148FDF758
:1040900081BF0000A00300200148FDF77BBF0000A6
:1040A000E8030020FEE70907090E002804DB00F101
:1040B000E02080F80014704700F00F0000F1E020CD
:1040C00080F8141D70470000C8B0FDF733F9FFF702
:1040D000F7FBFFF72DFAFFF7FDF9FFF709FBFFF7F5
:1040E00023FBFFF78FFAFFF7C1FAFFF76BFA584887
:1040F00000264496816941F004018161816901F0E3
:1041000004010091816941F0080181618069012405
:1041100000F00800009040F60440CDE9420402207F
:10412000459042A94B48FCF7AFFB822042904A4899
:10413000CDE9430442A94948FCF7A6FB002202212D
:104140000720FDF755F90720FDF744F90022022169
:104150001720FDF74DF91720FDF73CF908214048DD
:10416000FDF752FE0C213E48FDF74EFEFEF794F996
:104170000020FFF7F7FA0020FFF714FBFFF788FD98
:104180004FF4807A524637493748FDF78DFE374C59
:10419000E8464FF47A7900BFFFF7EAFC6078A8B3ED
:1041A0003148FDF7BDFE6589F02D00D9F025681C6A
:1041B000C7B25A208DF80000A5208DF801008DF8B7
:1041C00002700E208DF803002A46264908F10400EB
:1041D000FBF7FAFF87F00E010020224A03E0135C90
:1041E0005940401C80B2A842F9D308EB05006D1D70
:1041F0000171AAB24B4669461D48FEF7FBF866708E
:104200006681524617491848FDF74EFEFFF744F9FC
:1042100060B1A07818B1012803D0002002E001208D
:1042200000E00220FFF79EFAFFF7E4FAFCF726FC15
:10423000E169401A4845AFD9FCF720FCE0616946C6
:1042400001A8FEF791F9DDE90010FFF7FDFAA3E7F9
:1042500000100240000C0140000021100008014045
:1042600058030020BC010020A00300200000002013
:10427000E803002090EA010F48BF81F0004100F1FF
:104280002482421A3CBF801A89184FEAD0524FF05C
:104290007F4C1CEA410FA2EBD15318BF9CEA026F7E
:1042A00000F03B804FF0004C4CEA00204CEA01212A
:1042B00021FA03FC10EB0C0C1ED202F1FF325FEA74
:1042C0001C2040EBC25038BF70471CF07F0F4FEAF4
:1042D000400C18BFBCF17F4F38BF7047C3F12003BB
:1042E000994008BF20F00100BCF17F4F38BF7047F4
:1042F000A0F1C04000F0DDB94FEA3C00000A40EBFD
:10430000C25028BF1CF0FF0F4FEA400CE6D018BF88
:10431000BCF17F4F38BF7047EAE79CEA026F05D0D7
:1043200010EA5C0F08BF00F00040704710B500F0C5
:104330007AF900BF64FBBE3E4FF47F0C1CEAD0123A
:104340001EBF1CEAD11392EA0C0F93EA0C0F00F087
:10435000858090EA010F48BF42F4807240F4000C5F
:1043600041F400002CF07F4120F07F4000B58142F5
:10437000A2EB03020FF2081CACEB504EC0F10000A0
:104380009EF800E04FEA4E0E00FB0EFC38BF4900DD
:104390004FEA2C1C02F5FA020CFB0EF34FEACE1E7C
:1043A0004FEA112C4FEAC1210EEB635E42EB224231
:1043B0000EFB0CFC4FEA1C5300FB03114FEA112CBF
:1043C0004FEA01310EFB0CFC4FEADC4C00FB0C11F8
:1043D000C14228BF09184CEB03335DF804EB10EB26
:1043E000410143EBC250B2F57C0F38BF704729D56D
:1043F00012F0F00F1CBF00F1C04000F00040704709
:10440000008182838485868788898B8C8D8E8F91AD
:104410009293959697999A9C9D9FA0A2A3A5A7A8D1
:10442000AAACAEB0B2B3B5B7B9BCBEC0C2C5C7C9FD
:10443000CCCED1D4D7D9DCDFE2E6E9ECF0F3F7FA61
:10444000FE0000004FEA400C0CF1807CBCF17E4F76
:1044500028BF7047B0F1C04000F02BB990EA010FBF
:104460000CEAD11348BF42F48072624538BF6345FD
:1044700007D213F47F0F16D080EA010000F000404D
:10448000704710B500F0CFF8097EFC3E00F005B88B
:1044900080EA010000F00040704780EA010000F06F
:1044A000004000F006B912F47F0F04BF02487047C5
:1044B00080EA010000F0FDB80000C07F41000B0E53
:1044C000D3F19E0208D950F400034FEA032323FAE4
:1044D00002F048BF4042704710B500F0A4F800BF9A
:1044E00049922480002070476FF0004282EA200049
:1044F0007047000010F0004148BF4042B0FA80F31E
:1045000010FA03F2C3F19D030BD051EAC35101EB42
:104510001220530638BF704700F1010008BF20F099
:10452000010070474FF47F0C1CEAD0121EBF1CEA3A
:10453000D11392EA0C0F93EA0C0F00F0478090EA37
:10454000010F48BF42F480724FF0004C4CEA00204B
:104550004CEA012102EB0302A0FB0113A2F50002C9
:10456000002918BF43F001035B0028BF4FEA330363
:1045700042EB22425FEA132C4CEBC2502EBFBCEB45
:10458000436FB2F57C0F70474FEA036CBCF1004FEC
:1045900008BF20F00100B2F57C0F38BF70470BD583
:1045A00082F0FF0212F5803FC8BF704700F1C040A3
:1045B000D8BF00F00040704700F5000C5FEA4C0CDB
:1045C00048BF7047B0F1C04000F073B890EA010FE7
:1045D0000CEAD11348BF42F48072624538BF63458C
:1045E00004D280EA010000F00040704710B500F0EE
:1045F0001AF800BF8900013E00F007B800F009B8C2
:104600005FEA410C5FEA1C6C08D080EA010000F010
:1046100050B85FEA400C5FEA1C6CF6D14FF00040E6
:10462000A0F5800070470EF1020E2EF0030E5EF82A
:10463000044B244204D44FEA4102B2F17F4F11D817
:104640004FEA4003B3F17F4F0CD80ED14FEAD07C34
:10465000B2F17F4F0CEB4C0C0CF1020C08BF4CEB91
:10466000D17C04E04FF0080C01E04FEAD17C0CEB68
:104670004C0324FA03F404F00704B4F1040C06D24A
:104680000EEB840CBDE810404CF0010C6047DFE8F5
:104690000CF0070802024FF00040A0F5800010BDAA
:1046A0000846420018BFD2F1807288BF00F0004077
:1046B00010BDFF2141EAD050C005704790EA010FBC
:1046C00048BF81F000413FF5DCAD421A04D882F0CA
:1046D0000042A0EB020011444FEAD0524FF07F4C51
:1046E0001CEA410FA2EBD15318BF9CEA026F4AD0DB
:1046F0004FF0004C4CEA00204CEA012121FA03FC67
:10470000B0EB0C0C0FD412F0FE0F36D05FEA4C0069
:104710001DD5001240EBC25038BF70471CF03F0F50
:1047200018BF70470BE0A2F101025FEA1C2040EBCA
:10473000C25038BF70471CF07F0F18BF7047C3F1DD
:104740002003994014BF401E20F0010070478008EC
:104750004FEA122308BF7047B0FA80FCA2EB0C02AC
:10476000CCF1280C60FA0CF093EA122F04BF00EB96
:10477000C25070474FEAC3707047130A5FEADC10FB
:1047800008BF7047F6E79CEA026F04D010EA5C0F9E
:1047900008BF0020704710B5FFF745FF40DFF63E29
:1047A00081F0004070470102020304050607080972
:1047B0000A0B0C0D0E0F101000000000000000008E
:1047C00001020304060708090000000001020304B7
:1047D000F0470008000000203C000000280100080D
:1047E0002C4800083C000020640B00004401000835
:1047F0000000003200010000000000000000000086
:1048000000000000000000000000000000000000A8
:104810000000000000000000000000000100000097
:0C482000100000000000000000127A00F0
:04000005080000ED02
:00000001FF
